{
    "address": "0xe7f1725E7734CE288F8367e1Bb143E90bb3F0512",
    "abi": [
        {
            "inputs": [
                {
                    "internalType": "address",
                    "name": "priceFeedAddress",
                    "type": "address"
                }
            ],
            "stateMutability": "nonpayable",
            "type": "constructor"
        },
        {
            "inputs": [],
            "name": "FundMe__NotOwner",
            "type": "error"
        },
        {
            "inputs": [],
            "name": "MINIMUMUSD",
            "outputs": [
                {
                    "internalType": "uint256",
                    "name": "",
                    "type": "uint256"
                }
            ],
            "stateMutability": "view",
            "type": "function"
        },
        {
            "inputs": [],
            "name": "cheaperWithdraw",
            "outputs": [],
            "stateMutability": "payable",
            "type": "function"
        },
        {
            "inputs": [],
            "name": "fund",
            "outputs": [],
            "stateMutability": "payable",
            "type": "function"
        },
        {
            "inputs": [
                {
                    "internalType": "address",
                    "name": "funder",
                    "type": "address"
                }
            ],
            "name": "getAddressToAmountFunded",
            "outputs": [
                {
                    "internalType": "uint256",
                    "name": "",
                    "type": "uint256"
                }
            ],
            "stateMutability": "view",
            "type": "function"
        },
        {
            "inputs": [
                {
                    "internalType": "uint256",
                    "name": "index",
                    "type": "uint256"
                }
            ],
            "name": "getFunder",
            "outputs": [
                {
                    "internalType": "address",
                    "name": "",
                    "type": "address"
                }
            ],
            "stateMutability": "view",
            "type": "function"
        },
        {
            "inputs": [],
            "name": "getOwner",
            "outputs": [
                {
                    "internalType": "address",
                    "name": "",
                    "type": "address"
                }
            ],
            "stateMutability": "view",
            "type": "function"
        },
        {
            "inputs": [],
            "name": "getPriceFeed",
            "outputs": [
                {
                    "internalType": "contract AggregatorV3Interface",
                    "name": "",
                    "type": "address"
                }
            ],
            "stateMutability": "view",
            "type": "function"
        },
        {
            "inputs": [],
            "name": "number",
            "outputs": [
                {
                    "internalType": "uint256",
                    "name": "",
                    "type": "uint256"
                }
            ],
            "stateMutability": "view",
            "type": "function"
        },
        {
            "inputs": [],
            "name": "withdraw",
            "outputs": [],
            "stateMutability": "nonpayable",
            "type": "function"
        }
    ],
    "transactionHash": "0x32e12eb39cecc3e2781db41007f7c4a9d60f400a53c526ba22ba4284fe93b5f2",
    "args": [
        "0x5FbDB2315678afecb367f032d93F642f64180aa3"
    ],
    "numDeployments": 1,
    "solcInputHash": "216ac216310d9237d2e9fbe4779d2c33",
    "bytecode": "0x60a06040523480156200001157600080fd5b506040516200141038038062001410833981810160405281019062000037919062000120565b3373ffffffffffffffffffffffffffffffffffffffff1660808173ffffffffffffffffffffffffffffffffffffffff1660601b8152505080600160006101000a81548173ffffffffffffffffffffffffffffffffffffffff021916908373ffffffffffffffffffffffffffffffffffffffff1602179055505062000152565b600080fd5b600073ffffffffffffffffffffffffffffffffffffffff82169050919050565b6000620000e882620000bb565b9050919050565b620000fa81620000db565b81146200010657600080fd5b50565b6000815190506200011a81620000ef565b92915050565b600060208284031215620001395762000138620000b6565b5b6000620001498482850162000109565b91505092915050565b60805160601c6112836200018d60003960008181610227015281816103bb0152818161049d01528181610645015261083c01526112836000f3fe6080604052600436106100865760003560e01c8063893d20e811610059578063893d20e8146101355780639e87a5cd14610160578063b60d42881461018b578063be2693f014610195578063d7b4750c1461019f57610086565b80630343fb251461008b5780633ccfd60b146100c85780637d451480146100df5780638381f58a1461010a575b600080fd5b34801561009757600080fd5b506100b260048036038101906100ad9190610bc5565b6101dc565b6040516100bf9190610c0b565b60405180910390f35b3480156100d457600080fd5b506100dd610225565b005b3480156100eb57600080fd5b506100f4610486565b6040516101019190610c0b565b60405180910390f35b34801561011657600080fd5b5061011f610493565b60405161012c9190610c0b565b60405180910390f35b34801561014157600080fd5b5061014a610499565b6040516101579190610c35565b60405180910390f35b34801561016c57600080fd5b506101756104c1565b6040516101829190610caf565b60405180910390f35b6101936104eb565b005b61019d610643565b005b3480156101ab57600080fd5b506101c660048036038101906101c19190610cf6565b6108d2565b6040516101d39190610c35565b60405180910390f35b6000600360008373ffffffffffffffffffffffffffffffffffffffff1673ffffffffffffffffffffffffffffffffffffffff168152602001908152602001600020549050919050565b7f000000000000000000000000000000000000000000000000000000000000000073ffffffffffffffffffffffffffffffffffffffff163373ffffffffffffffffffffffffffffffffffffffff16146102aa576040517f579610db00000000000000000000000000000000000000000000000000000000815260040160405180910390fd5b60005b600280549050811015610356576000600282815481106102d0576102cf610d23565b5b9060005260206000200160009054906101000a900473ffffffffffffffffffffffffffffffffffffffff1690506000600360008373ffffffffffffffffffffffffffffffffffffffff1673ffffffffffffffffffffffffffffffffffffffff1681526020019081526020016000208190555050808061034e90610d81565b9150506102ad565b50600067ffffffffffffffff81111561037257610371610dca565b5b6040519080825280602002602001820160405280156103a05781602001602082028036833780820191505090505b50600290805190602001906103b6929190610abb565b5060007f000000000000000000000000000000000000000000000000000000000000000073ffffffffffffffffffffffffffffffffffffffff16476040516103fd90610e2a565b60006040518083038185875af1925050503d806000811461043a576040519150601f19603f3d011682016040523d82523d6000602084013e61043f565b606091505b5050905080610483576040517f08c379a000000000000000000000000000000000000000000000000000000000815260040161047a90610e9c565b60405180910390fd5b50565b6802b5e3af16b188000081565b60005481565b60007f0000000000000000000000000000000000000000000000000000000000000000905090565b6000600160009054906101000a900473ffffffffffffffffffffffffffffffffffffffff16905090565b600560008190555060008061052b600160009054906101000a900473ffffffffffffffffffffffffffffffffffffffff163461091a90919063ffffffff16565b9150670de0b6b3a7640000826105419190610eeb565b90506105826040518060400160405280601e81526020017f417474656d7074696e6720746f2066756e64207769746820257320555344000081525082610956565b6802b5e3af16b188000082101561059857600080fd5b6002339080600181540180825580915050600190039060005260206000200160009091909190916101000a81548173ffffffffffffffffffffffffffffffffffffffff021916908373ffffffffffffffffffffffffffffffffffffffff16021790555034600360003373ffffffffffffffffffffffffffffffffffffffff1673ffffffffffffffffffffffffffffffffffffffff168152602001908152602001600020819055505050565b7f000000000000000000000000000000000000000000000000000000000000000073ffffffffffffffffffffffffffffffffffffffff163373ffffffffffffffffffffffffffffffffffffffff16146106c8576040517f579610db00000000000000000000000000000000000000000000000000000000815260040160405180910390fd5b6000600280548060200260200160405190810160405280929190818152602001828054801561074c57602002820191906000526020600020905b8160009054906101000a900473ffffffffffffffffffffffffffffffffffffffff1673ffffffffffffffffffffffffffffffffffffffff1681526020019060010190808311610702575b5050505050905060005b81518110156107d757600082828151811061077457610773610d23565b5b602002602001015190506000600360008373ffffffffffffffffffffffffffffffffffffffff1673ffffffffffffffffffffffffffffffffffffffff168152602001908152602001600020819055505080806107cf90610d81565b915050610756565b50600067ffffffffffffffff8111156107f3576107f2610dca565b5b6040519080825280602002602001820160405280156108215781602001602082028036833780820191505090505b5060029080519060200190610837929190610abb565b5060007f000000000000000000000000000000000000000000000000000000000000000073ffffffffffffffffffffffffffffffffffffffff164760405161087e90610e2a565b60006040518083038185875af1925050503d80600081146108bb576040519150601f19603f3d011682016040523d82523d6000602084013e6108c0565b606091505b50509050806108ce57600080fd5b5050565b6000600282815481106108e8576108e7610d23565b5b9060005260206000200160009054906101000a900473ffffffffffffffffffffffffffffffffffffffff169050919050565b600080610926836109f2565b90506000670de0b6b3a7640000858361093f9190610f1c565b6109499190610eeb565b9050809250505092915050565b6109ee828260405160240161096c929190610ffe565b6040516020818303038152906040527f9710a9d0000000000000000000000000000000000000000000000000000000007bffffffffffffffffffffffffffffffffffffffffffffffffffffffff19166020820180517bffffffffffffffffffffffffffffffffffffffffffffffffffffffff8381831617835250505050610a92565b5050565b6000808273ffffffffffffffffffffffffffffffffffffffff1663feaf968c6040518163ffffffff1660e01b815260040160a06040518083038186803b158015610a3b57600080fd5b505afa158015610a4f573d6000803e3d6000fd5b505050506040513d601f19601f82011682018060405250810190610a7391906110bb565b5050509150506402540be40081610a8a9190611136565b915050919050565b60008151905060006a636f6e736f6c652e6c6f679050602083016000808483855afa5050505050565b828054828255906000526020600020908101928215610b34579160200282015b82811115610b335782518260006101000a81548173ffffffffffffffffffffffffffffffffffffffff021916908373ffffffffffffffffffffffffffffffffffffffff16021790555091602001919060010190610adb565b5b509050610b419190610b45565b5090565b5b80821115610b5e576000816000905550600101610b46565b5090565b600080fd5b600073ffffffffffffffffffffffffffffffffffffffff82169050919050565b6000610b9282610b67565b9050919050565b610ba281610b87565b8114610bad57600080fd5b50565b600081359050610bbf81610b99565b92915050565b600060208284031215610bdb57610bda610b62565b5b6000610be984828501610bb0565b91505092915050565b6000819050919050565b610c0581610bf2565b82525050565b6000602082019050610c206000830184610bfc565b92915050565b610c2f81610b87565b82525050565b6000602082019050610c4a6000830184610c26565b92915050565b6000819050919050565b6000610c75610c70610c6b84610b67565b610c50565b610b67565b9050919050565b6000610c8782610c5a565b9050919050565b6000610c9982610c7c565b9050919050565b610ca981610c8e565b82525050565b6000602082019050610cc46000830184610ca0565b92915050565b610cd381610bf2565b8114610cde57600080fd5b50565b600081359050610cf081610cca565b92915050565b600060208284031215610d0c57610d0b610b62565b5b6000610d1a84828501610ce1565b91505092915050565b7f4e487b7100000000000000000000000000000000000000000000000000000000600052603260045260246000fd5b7f4e487b7100000000000000000000000000000000000000000000000000000000600052601160045260246000fd5b6000610d8c82610bf2565b91507fffffffffffffffffffffffffffffffffffffffffffffffffffffffffffffffff821415610dbf57610dbe610d52565b5b600182019050919050565b7f4e487b7100000000000000000000000000000000000000000000000000000000600052604160045260246000fd5b600081905092915050565b50565b6000610e14600083610df9565b9150610e1f82610e04565b600082019050919050565b6000610e3582610e07565b9150819050919050565b600082825260208201905092915050565b7f43616c6c206661696c6564000000000000000000000000000000000000000000600082015250565b6000610e86600b83610e3f565b9150610e9182610e50565b602082019050919050565b60006020820190508181036000830152610eb581610e79565b9050919050565b7f4e487b7100000000000000000000000000000000000000000000000000000000600052601260045260246000fd5b6000610ef682610bf2565b9150610f0183610bf2565b925082610f1157610f10610ebc565b5b828204905092915050565b6000610f2782610bf2565b9150610f3283610bf2565b9250817fffffffffffffffffffffffffffffffffffffffffffffffffffffffffffffffff0483118215151615610f6b57610f6a610d52565b5b828202905092915050565b600081519050919050565b60005b83811015610f9f578082015181840152602081019050610f84565b83811115610fae576000848401525b50505050565b6000601f19601f8301169050919050565b6000610fd082610f76565b610fda8185610e3f565b9350610fea818560208601610f81565b610ff381610fb4565b840191505092915050565b600060408201905081810360008301526110188185610fc5565b90506110276020830184610bfc565b9392505050565b600069ffffffffffffffffffff82169050919050565b61104d8161102e565b811461105857600080fd5b50565b60008151905061106a81611044565b92915050565b6000819050919050565b61108381611070565b811461108e57600080fd5b50565b6000815190506110a08161107a565b92915050565b6000815190506110b581610cca565b92915050565b600080600080600060a086880312156110d7576110d6610b62565b5b60006110e58882890161105b565b95505060206110f688828901611091565b9450506040611107888289016110a6565b9350506060611118888289016110a6565b92505060806111298882890161105b565b9150509295509295909350565b600061114182611070565b915061114c83611070565b9250827f7fffffffffffffffffffffffffffffffffffffffffffffffffffffffffffffff048211600084136000841316161561118b5761118a610d52565b5b817f800000000000000000000000000000000000000000000000000000000000000005831260008412600084131616156111c8576111c7610d52565b5b827f8000000000000000000000000000000000000000000000000000000000000000058212600084136000841216161561120557611204610d52565b5b827f7fffffffffffffffffffffffffffffffffffffffffffffffffffffffffffffff058212600084126000841216161561124257611241610d52565b5b82820290509291505056fea2646970667358221220fea36d6c1b34e121b9f9f85ffbb9c093f1f800ec18a476fd8b2ad2a7f6d25db664736f6c63430008080033",
    "devdoc": {
        "kind": "dev",
        "methods": {},
        "version": 1
    },
    "userdoc": {
        "kind": "user",
        "methods": {},
        "version": 1
    },
    "storageLayout": {
        "storage": [
            {
                "astId": 56,
                "contract": "contracts/FundMe.sol:FundMe",
                "label": "number",
                "offset": 0,
                "slot": "0",
                "type": "t_uint256"
            },
            {
                "astId": 64,
                "contract": "contracts/FundMe.sol:FundMe",
                "label": "s_priceFeed",
                "offset": 0,
                "slot": "1",
                "type": "t_contract(AggregatorV3Interface)45"
            },
            {
                "astId": 67,
                "contract": "contracts/FundMe.sol:FundMe",
                "label": "s_funders",
                "offset": 0,
                "slot": "2",
                "type": "t_array(t_address)dyn_storage"
            },
            {
                "astId": 71,
                "contract": "contracts/FundMe.sol:FundMe",
                "label": "s_addressToAmountFunded",
                "offset": 0,
                "slot": "3",
                "type": "t_mapping(t_address,t_uint256)"
            }
        ],
        "types": {
            "t_address": {
                "encoding": "inplace",
                "label": "address",
                "numberOfBytes": "20"
            },
            "t_array(t_address)dyn_storage": {
                "base": "t_address",
                "encoding": "dynamic_array",
                "label": "address[]",
                "numberOfBytes": "32"
            },
            "t_contract(AggregatorV3Interface)45": {
                "encoding": "inplace",
                "label": "contract AggregatorV3Interface",
                "numberOfBytes": "20"
            },
            "t_mapping(t_address,t_uint256)": {
                "encoding": "mapping",
                "key": "t_address",
                "label": "mapping(address => uint256)",
                "numberOfBytes": "32",
                "value": "t_uint256"
            },
            "t_uint256": {
                "encoding": "inplace",
                "label": "uint256",
                "numberOfBytes": "32"
            }
        }
    }
}